:100000000C942A000C943C000C943C000C943C0092
:100010000C943C000C943C000C943C000C943C0070
:100020000C943C000C943C000C943C000C94960006
:100030000C943C000C943C000C943C000C943C0050
:100040000C943C000C943C000C943C000C943C0040
:100050000C943C0011241FBECFE5D8E0DEBFCDBF1D
:1000600010E0A0E6B0E001C01D92AD36B107E1F7A7
:100070000E9407040C942E040C940000813069F057
:10008000813018F0823071F404C083B7826083BF7E
:10009000089585B5826085BD08958EB582608EBD58
:1000A0008FEF86BD08954093640050936500609380
:1000B00066007093670030936900209368000E9487
:1000C0003E000895813049F0813018F0823031F4DB
:1000D00002C062BF089564BD08956CBD089581306B
:1000E00049F0813018F0823039F402C06CBF0895B5
:1000F00063BD089568BD6ABD0895813089F081307F
:1001000018F0823091F406C093B783B7887F892BAB
:1001100083BF089595B585B5887F892B85BD0895E2
:100120009EB58EB5887F892B8EBD08951F920F9244
:100130000FB60F9211242F933F934F935F936F93BA
:100140007F938F939F93AF93BF93EF93FF93809190
:10015000600090916100A0916200B09163000196EF
:10016000A11DB11D8093600090936100A093620077
:10017000B093630020916400309165004091660067
:100180005091670082179307A407B50769F4E091BF
:100190006800F0916900099510926000109261006A
:1001A0001092620010926300FF91EF91BF91AF91A6
:1001B0009F918F917F916F915F914F913F912F917F
:1001C0000F900FBE0F901F9018956130C9F06130ED
:1001D00030F0623099F1633009F095C05CC0813035
:1001E00061F0813020F0823009F08DC003C089B702
:1001F000816022C089B780641FC089B784601CC039
:10020000813091F0813020F0823009F07CC006C04E
:1002100083B7886083BF89B782600EC085B5886068
:1002200085BD85B5806854C08EB588608EBD89B7A0
:10023000886089BF89B7806189BF0895813071F076
:10024000813020F0823009F05EC004C083B788603E
:1002500083BF28C085B5886085BD30C08FB58160FB
:100260008FBD8FB582608FBD8EB588608EBD8EB517
:1002700080618EBD82B364E041E00E94840182B35C
:1002800065E041E00E9484018FB580688FBD8FB525
:1002900080628FBD08958130E9F0813018F082309E
:1002A00091F50CC083B7806483BF88B363E041E0FD
:1002B0000E94840183B7806283BF089585B58064FE
:1002C00085BD82B367E041E00E94840185B580620C
:1002D00085BD08958FB581608FBD8FB582608FBD5C
:1002E0008EB580618EBD82B364E041E00E948401DE
:1002F00082B365E041E00E9484018FB580688FBDC4
:100300008FB580628FBD0895843008F07EC068305C
:1003100008F07BC0423008F078C0813029F181308C
:1003200038F0823009F43CC0833009F06EC053C00D
:10033000442371F0413009F068C02AB381E090E0B5
:1003400002C0880F991F6A95E2F7282B2ABB0895EF
:100350002AB381E090E002C0880F991F6A95E2F706
:10036000809582238ABB0895442371F0413009F0BF
:100370004CC027B381E090E002C0880F991F6A95B6
:10038000E2F7282B27BB089527B381E090E002C055
:10039000880F991F6A95E2F78095822387BB08959D
:1003A000442369F0413089F524B381E090E002C034
:1003B000880F991F6A95E2F7282B24BB089524B370
:1003C00081E090E002C0880F991F6A95E2F780955E
:1003D000822384BB0895442369F04130B1F421B3F2
:1003E00081E090E002C0880F991F6A95E2F7282B00
:1003F00021BB089521B381E090E002C0880F991FCE
:100400006A95E2F78095822381BB0895843008F0D5
:100410007EC0683008F07BC0423008F078C0813080
:1004200029F1813038F0823009F43CC0833009F082
:100430006EC053C0442371F0413009F068C02BB343
:1004400081E090E002C0880F991F6A95E2F7282B9F
:100450002BBB08952BB381E090E002C0880F991F59
:100460006A95E2F7809582238BBB0895442371F04F
:10047000413009F04CC028B381E090E002C0880F01
:10048000991F6A95E2F7282B28BB089528B381E0CD
:1004900090E002C0880F991F6A95E2F78095822349
:1004A00088BB0895442369F0413089F525B381E084
:1004B00090E002C0880F991F6A95E2F7282B25BBB0
:1004C000089525B381E090E002C0880F991F6A95D6
:1004D000E2F78095822385BB0895442369F041307B
:1004E000B1F422B381E090E002C0880F991F6A95B1
:1004F000E2F7282B22BB089522B381E090E002C0EE
:10050000880F991F6A95E2F78095822382BB089530
:100510008430D0F46830C0F4813049F0813028F064
:10052000823039F0833081F406C089B305C086B3C8
:1005300003C083B301C080B390E002C09595879556
:100540006A95E2F78170089583E00895843000F59C
:100550006830F0F4813039F0813028F0823019F0C1
:100560008330B1F40BC02BB381E090E002C0880F60
:10057000991F6A95E2F728272BBB08952BB381E0DA
:1005800090E002C0880F991F6A95E2F728272BBBDD
:100590000895843080F4813049F0813028F0823031
:1005A00039F0833041F406C06ABB089567BB0895F3
:1005B00064BB089561BB0895843080F4813049F0B4
:1005C000813028F0823039F0833041F406C06BBBB3
:1005D000089568BB089565BB089562BB0895843093
:1005E00088F4813049F0813028F0823039F083304E
:1005F00049F406C089B3089586B3089583B3089576
:1006000080B3089580E00895843008F055C08130AB
:10061000C9F0813030F0823031F1833009F04CC0C4
:1006200037C08BB360E041E00E9484018BB361E08E
:1006300041E00E9484018BB362E041E00E948401AA
:100640008BB321C088B360E041E00E94840188B38D
:1006500061E041E00E94840188B362E041E00E94D1
:10066000840188B310C085B360E041E00E9484013A
:1006700085B361E041E00E94840185B362E041E01E
:100680000E94840185B363E041E00E9484010895E3
:1006900082B360E041E00E94840182B361E041E006
:1006A0000E94840182B362E041E00E94840182B32F
:1006B00063E041E00E9484010895843008F055C051
:1006C0008130C9F0813030F0823031F1833009F06F
:1006D0004CC037C08BB364E041E00E9484018BB30F
:1006E00065E041E00E9484018BB366E041E00E9436
:1006F00084018BB321C088B364E041E00E9484018F
:1007000088B365E041E00E94840188B366E041E07F
:100710000E94840188B310C085B364E041E00E9468
:10072000840185B365E041E00E94840185B366E001
:1007300041E00E94840185B367E041E00E948401AA
:10074000089582B364E041E00E94840182B365E0D1
:1007500041E00E94840182B366E041E00E9484018E
:1007600082B367E041E00E9484010895843028F557
:100770006F70813071F0813028F0823089F08330E1
:10078000E1F415C08BB3807F8BBB8BB3682B6BBB45
:10079000089588B3807F88BB88B3682B68BB0895B1
:1007A00085B3807F85BB85B3682B65BB089582B315
:1007B000807F82BB82B3682B62BB0895843030F5A2
:1007C0006295607F813071F0813028F0823089F04D
:1007D0008330E1F415C08BB38F708BBB8BB3682B68
:1007E0006BBB089588B38F7088BB88B3682B68BBD8
:1007F000089585B38F7085BB85B3682B65BB08955D
:1008000082B38F7082BB82B3682B62BB0895CF9393
:10081000DF938BB360E041E00E9484018BB361E021
:1008200040E00E948401C0E9D1E08BB360E041E088
:100830000E94060288E893E1FE013197F1F70197E3
:10084000D9F78BB360E040E00E94060288E893E1AC
:10085000FE013197F1F70197D9F7E7CFF894FFCF71
:00000001FF
